{
  "_format": "hh-sol-artifact-1",
  "contractName": "erc20Contract",
  "sourceName": "contracts/erc20-kelvin.sol",
  "abi": [
    {
      "inputs": [],
      "stateMutability": "nonpayable",
      "type": "constructor"
    },
    {
      "anonymous": false,
      "inputs": [
        {
          "indexed": false,
          "internalType": "address",
          "name": "previousAdmin",
          "type": "address"
        },
        {
          "indexed": false,
          "internalType": "address",
          "name": "newAdmin",
          "type": "address"
        }
      ],
      "name": "AdminChanged",
      "type": "event"
    },
    {
      "anonymous": false,
      "inputs": [
        {
          "indexed": true,
          "internalType": "address",
          "name": "owner",
          "type": "address"
        },
        {
          "indexed": true,
          "internalType": "address",
          "name": "spender",
          "type": "address"
        },
        {
          "indexed": false,
          "internalType": "uint256",
          "name": "value",
          "type": "uint256"
        }
      ],
      "name": "Approval",
      "type": "event"
    },
    {
      "anonymous": false,
      "inputs": [
        {
          "indexed": true,
          "internalType": "address",
          "name": "beacon",
          "type": "address"
        }
      ],
      "name": "BeaconUpgraded",
      "type": "event"
    },
    {
      "anonymous": false,
      "inputs": [
        {
          "indexed": false,
          "internalType": "uint8",
          "name": "version",
          "type": "uint8"
        }
      ],
      "name": "Initialized",
      "type": "event"
    },
    {
      "anonymous": false,
      "inputs": [
        {
          "indexed": true,
          "internalType": "address",
          "name": "previousOwner",
          "type": "address"
        },
        {
          "indexed": true,
          "internalType": "address",
          "name": "newOwner",
          "type": "address"
        }
      ],
      "name": "OwnershipTransferred",
      "type": "event"
    },
    {
      "anonymous": false,
      "inputs": [
        {
          "indexed": true,
          "internalType": "address",
          "name": "from",
          "type": "address"
        },
        {
          "indexed": true,
          "internalType": "address",
          "name": "to",
          "type": "address"
        },
        {
          "indexed": false,
          "internalType": "uint256",
          "name": "value",
          "type": "uint256"
        }
      ],
      "name": "Transfer",
      "type": "event"
    },
    {
      "anonymous": false,
      "inputs": [
        {
          "indexed": true,
          "internalType": "address",
          "name": "implementation",
          "type": "address"
        }
      ],
      "name": "Upgraded",
      "type": "event"
    },
    {
      "inputs": [
        {
          "internalType": "address",
          "name": "owner",
          "type": "address"
        },
        {
          "internalType": "address",
          "name": "spender",
          "type": "address"
        }
      ],
      "name": "allowance",
      "outputs": [
        {
          "internalType": "uint256",
          "name": "",
          "type": "uint256"
        }
      ],
      "stateMutability": "view",
      "type": "function"
    },
    {
      "inputs": [
        {
          "internalType": "address",
          "name": "spender",
          "type": "address"
        },
        {
          "internalType": "uint256",
          "name": "amount",
          "type": "uint256"
        }
      ],
      "name": "approve",
      "outputs": [
        {
          "internalType": "bool",
          "name": "",
          "type": "bool"
        }
      ],
      "stateMutability": "nonpayable",
      "type": "function"
    },
    {
      "inputs": [
        {
          "internalType": "address",
          "name": "account",
          "type": "address"
        }
      ],
      "name": "balanceOf",
      "outputs": [
        {
          "internalType": "uint256",
          "name": "",
          "type": "uint256"
        }
      ],
      "stateMutability": "view",
      "type": "function"
    },
    {
      "inputs": [
        {
          "internalType": "uint256",
          "name": "amount",
          "type": "uint256"
        }
      ],
      "name": "burn",
      "outputs": [],
      "stateMutability": "nonpayable",
      "type": "function"
    },
    {
      "inputs": [
        {
          "internalType": "address",
          "name": "account",
          "type": "address"
        },
        {
          "internalType": "uint256",
          "name": "amount",
          "type": "uint256"
        }
      ],
      "name": "burnFrom",
      "outputs": [],
      "stateMutability": "nonpayable",
      "type": "function"
    },
    {
      "inputs": [],
      "name": "decimals",
      "outputs": [
        {
          "internalType": "uint8",
          "name": "",
          "type": "uint8"
        }
      ],
      "stateMutability": "view",
      "type": "function"
    },
    {
      "inputs": [
        {
          "internalType": "address",
          "name": "spender",
          "type": "address"
        },
        {
          "internalType": "uint256",
          "name": "subtractedValue",
          "type": "uint256"
        }
      ],
      "name": "decreaseAllowance",
      "outputs": [
        {
          "internalType": "bool",
          "name": "",
          "type": "bool"
        }
      ],
      "stateMutability": "nonpayable",
      "type": "function"
    },
    {
      "inputs": [
        {
          "internalType": "address",
          "name": "spender",
          "type": "address"
        },
        {
          "internalType": "uint256",
          "name": "addedValue",
          "type": "uint256"
        }
      ],
      "name": "increaseAllowance",
      "outputs": [
        {
          "internalType": "bool",
          "name": "",
          "type": "bool"
        }
      ],
      "stateMutability": "nonpayable",
      "type": "function"
    },
    {
      "inputs": [],
      "name": "initialize",
      "outputs": [],
      "stateMutability": "nonpayable",
      "type": "function"
    },
    {
      "inputs": [
        {
          "internalType": "address",
          "name": "to",
          "type": "address"
        },
        {
          "internalType": "uint256",
          "name": "amount",
          "type": "uint256"
        }
      ],
      "name": "mint",
      "outputs": [],
      "stateMutability": "nonpayable",
      "type": "function"
    },
    {
      "inputs": [],
      "name": "name",
      "outputs": [
        {
          "internalType": "string",
          "name": "",
          "type": "string"
        }
      ],
      "stateMutability": "view",
      "type": "function"
    },
    {
      "inputs": [],
      "name": "owner",
      "outputs": [
        {
          "internalType": "address",
          "name": "",
          "type": "address"
        }
      ],
      "stateMutability": "view",
      "type": "function"
    },
    {
      "inputs": [],
      "name": "proxiableUUID",
      "outputs": [
        {
          "internalType": "bytes32",
          "name": "",
          "type": "bytes32"
        }
      ],
      "stateMutability": "view",
      "type": "function"
    },
    {
      "inputs": [],
      "name": "renounceOwnership",
      "outputs": [],
      "stateMutability": "nonpayable",
      "type": "function"
    },
    {
      "inputs": [],
      "name": "symbol",
      "outputs": [
        {
          "internalType": "string",
          "name": "",
          "type": "string"
        }
      ],
      "stateMutability": "view",
      "type": "function"
    },
    {
      "inputs": [],
      "name": "totalSupply",
      "outputs": [
        {
          "internalType": "uint256",
          "name": "",
          "type": "uint256"
        }
      ],
      "stateMutability": "view",
      "type": "function"
    },
    {
      "inputs": [
        {
          "internalType": "address",
          "name": "recipient",
          "type": "address"
        },
        {
          "internalType": "uint256",
          "name": "amount",
          "type": "uint256"
        }
      ],
      "name": "transfer",
      "outputs": [
        {
          "internalType": "bool",
          "name": "",
          "type": "bool"
        }
      ],
      "stateMutability": "nonpayable",
      "type": "function"
    },
    {
      "inputs": [
        {
          "internalType": "address",
          "name": "from",
          "type": "address"
        },
        {
          "internalType": "address",
          "name": "to",
          "type": "address"
        },
        {
          "internalType": "uint256",
          "name": "amount",
          "type": "uint256"
        }
      ],
      "name": "transferFrom",
      "outputs": [
        {
          "internalType": "bool",
          "name": "",
          "type": "bool"
        }
      ],
      "stateMutability": "nonpayable",
      "type": "function"
    },
    {
      "inputs": [
        {
          "internalType": "address",
          "name": "newOwner",
          "type": "address"
        }
      ],
      "name": "transferOwnership",
      "outputs": [],
      "stateMutability": "nonpayable",
      "type": "function"
    },
    {
      "inputs": [
        {
          "internalType": "address",
          "name": "newImplementation",
          "type": "address"
        }
      ],
      "name": "upgradeTo",
      "outputs": [],
      "stateMutability": "nonpayable",
      "type": "function"
    },
    {
      "inputs": [
        {
          "internalType": "address",
          "name": "newImplementation",
          "type": "address"
        },
        {
          "internalType": "bytes",
          "name": "data",
          "type": "bytes"
        }
      ],
      "name": "upgradeToAndCall",
      "outputs": [],
      "stateMutability": "payable",
      "type": "function"
    }
  ],
  "bytecode": "0x60a06040523073ffffffffffffffffffffffffffffffffffffffff1660809073ffffffffffffffffffffffffffffffffffffffff168152503480156200004457600080fd5b50620000556200005b60201b60201c565b62000206565b600060019054906101000a900460ff1615620000ae576040517f08c379a0000000000000000000000000000000000000000000000000000000008152600401620000a590620001a9565b60405180910390fd5b60ff801660008054906101000a900460ff1660ff161015620001205760ff6000806101000a81548160ff021916908360ff1602179055507f7f26b83ff96e1f2b6a682f133852f6798a09c465da95921460cefb384740249860ff604051620001179190620001e9565b60405180910390a15b565b600082825260208201905092915050565b7f496e697469616c697a61626c653a20636f6e747261637420697320696e69746960008201527f616c697a696e6700000000000000000000000000000000000000000000000000602082015250565b60006200019160278362000122565b91506200019e8262000133565b604082019050919050565b60006020820190508181036000830152620001c48162000182565b9050919050565b600060ff82169050919050565b620001e381620001cb565b82525050565b6000602082019050620002006000830184620001d8565b92915050565b6080516135886200023e600039600081816105ec0152818161067a0152818161082d015281816108bb015261096b01526135886000f3fe60806040526004361061012a5760003560e01c806352d1902d116100ab5780638da5cb5b1161006f5780638da5cb5b146103bd57806395d89b41146103e8578063a457c2d714610413578063a9059cbb14610450578063dd62ed3e1461048d578063f2fde38b146104ca5761012a565b806352d1902d146102fe57806370a0823114610329578063715018a61461036657806379cc67901461037d5780638129fc1c146103a65761012a565b80633659cfe6116100f25780633659cfe61461022a578063395093511461025357806340c10f191461029057806342966c68146102b95780634f1ef286146102e25761012a565b806306fdde031461012f578063095ea7b31461015a57806318160ddd1461019757806323b872dd146101c2578063313ce567146101ff575b600080fd5b34801561013b57600080fd5b506101446104f3565b6040516101519190611fa4565b60405180910390f35b34801561016657600080fd5b50610181600480360381019061017c919061206e565b610585565b60405161018e91906120c9565b60405180910390f35b3480156101a357600080fd5b506101ac6105a8565b6040516101b991906120f3565b60405180910390f35b3480156101ce57600080fd5b506101e960048036038101906101e4919061210e565b6105b2565b6040516101f691906120c9565b60405180910390f35b34801561020b57600080fd5b506102146105e1565b604051610221919061217d565b60405180910390f35b34801561023657600080fd5b50610251600480360381019061024c9190612198565b6105ea565b005b34801561025f57600080fd5b5061027a6004803603810190610275919061206e565b610772565b60405161028791906120c9565b60405180910390f35b34801561029c57600080fd5b506102b760048036038101906102b2919061206e565b6107a9565b005b3480156102c557600080fd5b506102e060048036038101906102db91906121c5565b610817565b005b6102fc60048036038101906102f79190612327565b61082b565b005b34801561030a57600080fd5b50610313610967565b604051610320919061239c565b60405180910390f35b34801561033557600080fd5b50610350600480360381019061034b9190612198565b610a20565b60405161035d91906120f3565b60405180910390f35b34801561037257600080fd5b5061037b610a69565b005b34801561038957600080fd5b506103a4600480360381019061039f919061206e565b610a7d565b005b3480156103b257600080fd5b506103bb610a9d565b005b3480156103c957600080fd5b506103d2610c6c565b6040516103df91906123c6565b60405180910390f35b3480156103f457600080fd5b506103fd610c96565b60405161040a9190611fa4565b60405180910390f35b34801561041f57600080fd5b5061043a6004803603810190610435919061206e565b610d28565b60405161044791906120c9565b60405180910390f35b34801561045c57600080fd5b506104776004803603810190610472919061206e565b610d9f565b60405161048491906120c9565b60405180910390f35b34801561049957600080fd5b506104b460048036038101906104af91906123e1565b610de0565b6040516104c191906120f3565b60405180910390f35b3480156104d657600080fd5b506104f160048036038101906104ec9190612198565b610e67565b005b60606036805461050290612450565b80601f016020809104026020016040519081016040528092919081815260200182805461052e90612450565b801561057b5780601f106105505761010080835404028352916020019161057b565b820191906000526020600020905b81548152906001019060200180831161055e57829003601f168201915b5050505050905090565b600080610590610eea565b905061059d818585610ef2565b600191505092915050565b6000603554905090565b6000806105bd610eea565b90506105ca8582856110bb565b6105d5858585611147565b60019150509392505050565b60006012905090565b7f000000000000000000000000000000000000000000000000000000000000000073ffffffffffffffffffffffffffffffffffffffff163073ffffffffffffffffffffffffffffffffffffffff1603610678576040517f08c379a000000000000000000000000000000000000000000000000000000000815260040161066f906124f3565b60405180910390fd5b7f000000000000000000000000000000000000000000000000000000000000000073ffffffffffffffffffffffffffffffffffffffff166106b76113c0565b73ffffffffffffffffffffffffffffffffffffffff161461070d576040517f08c379a000000000000000000000000000000000000000000000000000000000815260040161070490612585565b60405180910390fd5b61071681611417565b61076f81600067ffffffffffffffff811115610735576107346121fc565b5b6040519080825280601f01601f1916602001820160405280156107675781602001600182028036833780820191505090505b506000611422565b50565b60008061077d610eea565b905061079e81858561078f8589610de0565b61079991906125d4565b610ef2565b600191505092915050565b6107b1611590565b620f4240816107be6105a8565b6107c891906125d4565b1115610809576040517f08c379a00000000000000000000000000000000000000000000000000000000081526004016108009061267a565b60405180910390fd5b610813828261160e565b5050565b610828610822610eea565b82611765565b50565b7f000000000000000000000000000000000000000000000000000000000000000073ffffffffffffffffffffffffffffffffffffffff163073ffffffffffffffffffffffffffffffffffffffff16036108b9576040517f08c379a00000000000000000000000000000000000000000000000000000000081526004016108b0906124f3565b60405180910390fd5b7f000000000000000000000000000000000000000000000000000000000000000073ffffffffffffffffffffffffffffffffffffffff166108f86113c0565b73ffffffffffffffffffffffffffffffffffffffff161461094e576040517f08c379a000000000000000000000000000000000000000000000000000000000815260040161094590612585565b60405180910390fd5b61095782611417565b61096382826001611422565b5050565b60007f000000000000000000000000000000000000000000000000000000000000000073ffffffffffffffffffffffffffffffffffffffff163073ffffffffffffffffffffffffffffffffffffffff16146109f7576040517f08c379a00000000000000000000000000000000000000000000000000000000081526004016109ee9061270c565b60405180910390fd5b7f360894a13ba1a3210667c828492db98dca3e2076cc3735a920a3ca505d382bbc60001b905090565b6000603360008373ffffffffffffffffffffffffffffffffffffffff1673ffffffffffffffffffffffffffffffffffffffff168152602001908152602001600020549050919050565b610a71611590565b610a7b6000611934565b565b610a8f82610a89610eea565b836110bb565b610a998282611765565b5050565b60008060019054906101000a900460ff16159050808015610ace5750600160008054906101000a900460ff1660ff16105b80610afb5750610add306119fa565b158015610afa5750600160008054906101000a900460ff1660ff16145b5b610b3a576040517f08c379a0000000000000000000000000000000000000000000000000000000008152600401610b319061279e565b60405180910390fd5b60016000806101000a81548160ff021916908360ff1602179055508015610b77576001600060016101000a81548160ff0219169083151502179055505b610beb6040518060400160405280600b81526020017f4b454c56494e544f4b454e0000000000000000000000000000000000000000008152506040518060400160405280600381526020017f4b544f0000000000000000000000000000000000000000000000000000000000815250611a1d565b610bf3611a7a565b610bfb611acb565b610c03611b24565b610c1033620186a061160e565b8015610c695760008060016101000a81548160ff0219169083151502179055507f7f26b83ff96e1f2b6a682f133852f6798a09c465da95921460cefb38474024986001604051610c609190612803565b60405180910390a15b50565b6000609760009054906101000a900473ffffffffffffffffffffffffffffffffffffffff16905090565b606060378054610ca590612450565b80601f0160208091040260200160405190810160405280929190818152602001828054610cd190612450565b8015610d1e5780601f10610cf357610100808354040283529160200191610d1e565b820191906000526020600020905b815481529060010190602001808311610d0157829003601f168201915b5050505050905090565b600080610d33610eea565b90506000610d418286610de0565b905083811015610d86576040517f08c379a0000000000000000000000000000000000000000000000000000000008152600401610d7d90612890565b60405180910390fd5b610d938286868403610ef2565b60019250505092915050565b6000610db6600a83610db191906128df565b610817565b610dd883600a600985610dc99190612910565b610dd391906128df565b611b75565b905092915050565b6000603460008473ffffffffffffffffffffffffffffffffffffffff1673ffffffffffffffffffffffffffffffffffffffff16815260200190815260200160002060008373ffffffffffffffffffffffffffffffffffffffff1673ffffffffffffffffffffffffffffffffffffffff16815260200190815260200160002054905092915050565b610e6f611590565b600073ffffffffffffffffffffffffffffffffffffffff168173ffffffffffffffffffffffffffffffffffffffff1603610ede576040517f08c379a0000000000000000000000000000000000000000000000000000000008152600401610ed5906129c4565b60405180910390fd5b610ee781611934565b50565b600033905090565b600073ffffffffffffffffffffffffffffffffffffffff168373ffffffffffffffffffffffffffffffffffffffff1603610f61576040517f08c379a0000000000000000000000000000000000000000000000000000000008152600401610f5890612a56565b60405180910390fd5b600073ffffffffffffffffffffffffffffffffffffffff168273ffffffffffffffffffffffffffffffffffffffff1603610fd0576040517f08c379a0000000000000000000000000000000000000000000000000000000008152600401610fc790612ae8565b60405180910390fd5b80603460008573ffffffffffffffffffffffffffffffffffffffff1673ffffffffffffffffffffffffffffffffffffffff16815260200190815260200160002060008473ffffffffffffffffffffffffffffffffffffffff1673ffffffffffffffffffffffffffffffffffffffff168152602001908152602001600020819055508173ffffffffffffffffffffffffffffffffffffffff168373ffffffffffffffffffffffffffffffffffffffff167f8c5be1e5ebec7d5bd14f71427d1e84f3dd0314c0f7b2291e5b200ac8c7c3b925836040516110ae91906120f3565b60405180910390a3505050565b60006110c78484610de0565b90507fffffffffffffffffffffffffffffffffffffffffffffffffffffffffffffffff81146111415781811015611133576040517f08c379a000000000000000000000000000000000000000000000000000000000815260040161112a90612b54565b60405180910390fd5b6111408484848403610ef2565b5b50505050565b600073ffffffffffffffffffffffffffffffffffffffff168373ffffffffffffffffffffffffffffffffffffffff16036111b6576040517f08c379a00000000000000000000000000000000000000000000000000000000081526004016111ad90612be6565b60405180910390fd5b600073ffffffffffffffffffffffffffffffffffffffff168273ffffffffffffffffffffffffffffffffffffffff1603611225576040517f08c379a000000000000000000000000000000000000000000000000000000000815260040161121c90612c78565b60405180910390fd5b611230838383611b98565b6000603360008573ffffffffffffffffffffffffffffffffffffffff1673ffffffffffffffffffffffffffffffffffffffff168152602001908152602001600020549050818110156112b7576040517f08c379a00000000000000000000000000000000000000000000000000000000081526004016112ae90612d0a565b60405180910390fd5b818103603360008673ffffffffffffffffffffffffffffffffffffffff1673ffffffffffffffffffffffffffffffffffffffff1681526020019081526020016000208190555081603360008573ffffffffffffffffffffffffffffffffffffffff1673ffffffffffffffffffffffffffffffffffffffff168152602001908152602001600020600082825401925050819055508273ffffffffffffffffffffffffffffffffffffffff168473ffffffffffffffffffffffffffffffffffffffff167fddf252ad1be2c89b69c2b068fc378daa952ba7f163c4a11628f55a4df523b3ef846040516113a791906120f3565b60405180910390a36113ba848484611b9d565b50505050565b60006113ee7f360894a13ba1a3210667c828492db98dca3e2076cc3735a920a3ca505d382bbc60001b611ba2565b60000160009054906101000a900473ffffffffffffffffffffffffffffffffffffffff16905090565b61141f611590565b50565b61144e7f4910fdfa16fed3260ed0e7147f7cc6da11a60208b5b9406d12a635614ffd914360001b611bac565b60000160009054906101000a900460ff16156114725761146d83611bb6565b61158b565b8273ffffffffffffffffffffffffffffffffffffffff166352d1902d6040518163ffffffff1660e01b8152600401602060405180830381865afa9250505080156114da57506040513d601f19601f820116820180604052508101906114d79190612d56565b60015b611519576040517f08c379a000000000000000000000000000000000000000000000000000000000815260040161151090612df5565b60405180910390fd5b7f360894a13ba1a3210667c828492db98dca3e2076cc3735a920a3ca505d382bbc60001b811461157e576040517f08c379a000000000000000000000000000000000000000000000000000000000815260040161157590612e87565b60405180910390fd5b5061158a838383611c6f565b5b505050565b611598610eea565b73ffffffffffffffffffffffffffffffffffffffff166115b6610c6c565b73ffffffffffffffffffffffffffffffffffffffff161461160c576040517f08c379a000000000000000000000000000000000000000000000000000000000815260040161160390612ef3565b60405180910390fd5b565b600073ffffffffffffffffffffffffffffffffffffffff168273ffffffffffffffffffffffffffffffffffffffff160361167d576040517f08c379a000000000000000000000000000000000000000000000000000000000815260040161167490612f5f565b60405180910390fd5b61168960008383611b98565b806035600082825461169b91906125d4565b9250508190555080603360008473ffffffffffffffffffffffffffffffffffffffff1673ffffffffffffffffffffffffffffffffffffffff168152602001908152602001600020600082825401925050819055508173ffffffffffffffffffffffffffffffffffffffff16600073ffffffffffffffffffffffffffffffffffffffff167fddf252ad1be2c89b69c2b068fc378daa952ba7f163c4a11628f55a4df523b3ef8360405161174d91906120f3565b60405180910390a361176160008383611b9d565b5050565b600073ffffffffffffffffffffffffffffffffffffffff168273ffffffffffffffffffffffffffffffffffffffff16036117d4576040517f08c379a00000000000000000000000000000000000000000000000000000000081526004016117cb90612ff1565b60405180910390fd5b6117e082600083611b98565b6000603360008473ffffffffffffffffffffffffffffffffffffffff1673ffffffffffffffffffffffffffffffffffffffff16815260200190815260200160002054905081811015611867576040517f08c379a000000000000000000000000000000000000000000000000000000000815260040161185e90613083565b60405180910390fd5b818103603360008573ffffffffffffffffffffffffffffffffffffffff1673ffffffffffffffffffffffffffffffffffffffff1681526020019081526020016000208190555081603560008282540392505081905550600073ffffffffffffffffffffffffffffffffffffffff168373ffffffffffffffffffffffffffffffffffffffff167fddf252ad1be2c89b69c2b068fc378daa952ba7f163c4a11628f55a4df523b3ef8460405161191b91906120f3565b60405180910390a361192f83600084611b9d565b505050565b6000609760009054906101000a900473ffffffffffffffffffffffffffffffffffffffff16905081609760006101000a81548173ffffffffffffffffffffffffffffffffffffffff021916908373ffffffffffffffffffffffffffffffffffffffff1602179055508173ffffffffffffffffffffffffffffffffffffffff168173ffffffffffffffffffffffffffffffffffffffff167f8be0079c531659141344cd1fd0a4f28419497f9722a3daafe3b4186f6b6457e060405160405180910390a35050565b6000808273ffffffffffffffffffffffffffffffffffffffff163b119050919050565b600060019054906101000a900460ff16611a6c576040517f08c379a0000000000000000000000000000000000000000000000000000000008152600401611a6390613115565b60405180910390fd5b611a768282611c9b565b5050565b600060019054906101000a900460ff16611ac9576040517f08c379a0000000000000000000000000000000000000000000000000000000008152600401611ac090613115565b60405180910390fd5b565b600060019054906101000a900460ff16611b1a576040517f08c379a0000000000000000000000000000000000000000000000000000000008152600401611b1190613115565b60405180910390fd5b611b22611d0e565b565b600060019054906101000a900460ff16611b73576040517f08c379a0000000000000000000000000000000000000000000000000000000008152600401611b6a90613115565b60405180910390fd5b565b600080611b80610eea565b9050611b8d818585611147565b600191505092915050565b505050565b505050565b6000819050919050565b6000819050919050565b611bbf816119fa565b611bfe576040517f08c379a0000000000000000000000000000000000000000000000000000000008152600401611bf5906131a7565b60405180910390fd5b80611c2b7f360894a13ba1a3210667c828492db98dca3e2076cc3735a920a3ca505d382bbc60001b611ba2565b60000160006101000a81548173ffffffffffffffffffffffffffffffffffffffff021916908373ffffffffffffffffffffffffffffffffffffffff16021790555050565b611c7883611d6f565b600082511180611c855750805b15611c9657611c948383611dbe565b505b505050565b600060019054906101000a900460ff16611cea576040517f08c379a0000000000000000000000000000000000000000000000000000000008152600401611ce190613115565b60405180910390fd5b8160369081611cf99190613369565b508060379081611d099190613369565b505050565b600060019054906101000a900460ff16611d5d576040517f08c379a0000000000000000000000000000000000000000000000000000000008152600401611d5490613115565b60405180910390fd5b611d6d611d68610eea565b611934565b565b611d7881611bb6565b8073ffffffffffffffffffffffffffffffffffffffff167fbc7cd75a20ee27fd9adebab32041f755214dbc6bffa90cc0225b39da2e5c2d3b60405160405180910390a250565b6060611dc9836119fa565b611e08576040517f08c379a0000000000000000000000000000000000000000000000000000000008152600401611dff906134ad565b60405180910390fd5b6000808473ffffffffffffffffffffffffffffffffffffffff1684604051611e309190613514565b600060405180830381855af49150503d8060008114611e6b576040519150601f19603f3d011682016040523d82523d6000602084013e611e70565b606091505b5091509150611e98828260405180606001604052806027815260200161352c60279139611ea2565b9250505092915050565b60608315611eb257829050611ebd565b611ebc8383611ec4565b5b9392505050565b600082511115611ed75781518083602001fd5b806040517f08c379a0000000000000000000000000000000000000000000000000000000008152600401611f0b9190611fa4565b60405180910390fd5b600081519050919050565b600082825260208201905092915050565b60005b83811015611f4e578082015181840152602081019050611f33565b60008484015250505050565b6000601f19601f8301169050919050565b6000611f7682611f14565b611f808185611f1f565b9350611f90818560208601611f30565b611f9981611f5a565b840191505092915050565b60006020820190508181036000830152611fbe8184611f6b565b905092915050565b6000604051905090565b600080fd5b600080fd5b600073ffffffffffffffffffffffffffffffffffffffff82169050919050565b600061200582611fda565b9050919050565b61201581611ffa565b811461202057600080fd5b50565b6000813590506120328161200c565b92915050565b6000819050919050565b61204b81612038565b811461205657600080fd5b50565b60008135905061206881612042565b92915050565b6000806040838503121561208557612084611fd0565b5b600061209385828601612023565b92505060206120a485828601612059565b9150509250929050565b60008115159050919050565b6120c3816120ae565b82525050565b60006020820190506120de60008301846120ba565b92915050565b6120ed81612038565b82525050565b600060208201905061210860008301846120e4565b92915050565b60008060006060848603121561212757612126611fd0565b5b600061213586828701612023565b935050602061214686828701612023565b925050604061215786828701612059565b9150509250925092565b600060ff82169050919050565b61217781612161565b82525050565b6000602082019050612192600083018461216e565b92915050565b6000602082840312156121ae576121ad611fd0565b5b60006121bc84828501612023565b91505092915050565b6000602082840312156121db576121da611fd0565b5b60006121e984828501612059565b91505092915050565b600080fd5b600080fd5b7f4e487b7100000000000000000000000000000000000000000000000000000000600052604160045260246000fd5b61223482611f5a565b810181811067ffffffffffffffff82111715612253576122526121fc565b5b80604052505050565b6000612266611fc6565b9050612272828261222b565b919050565b600067ffffffffffffffff821115612292576122916121fc565b5b61229b82611f5a565b9050602081019050919050565b82818337600083830152505050565b60006122ca6122c584612277565b61225c565b9050828152602081018484840111156122e6576122e56121f7565b5b6122f18482856122a8565b509392505050565b600082601f83011261230e5761230d6121f2565b5b813561231e8482602086016122b7565b91505092915050565b6000806040838503121561233e5761233d611fd0565b5b600061234c85828601612023565b925050602083013567ffffffffffffffff81111561236d5761236c611fd5565b5b612379858286016122f9565b9150509250929050565b6000819050919050565b61239681612383565b82525050565b60006020820190506123b1600083018461238d565b92915050565b6123c081611ffa565b82525050565b60006020820190506123db60008301846123b7565b92915050565b600080604083850312156123f8576123f7611fd0565b5b600061240685828601612023565b925050602061241785828601612023565b9150509250929050565b7f4e487b7100000000000000000000000000000000000000000000000000000000600052602260045260246000fd5b6000600282049050600182168061246857607f821691505b60208210810361247b5761247a612421565b5b50919050565b7f46756e6374696f6e206d7573742062652063616c6c6564207468726f7567682060008201527f64656c656761746563616c6c0000000000000000000000000000000000000000602082015250565b60006124dd602c83611f1f565b91506124e882612481565b604082019050919050565b6000602082019050818103600083015261250c816124d0565b9050919050565b7f46756e6374696f6e206d7573742062652063616c6c6564207468726f7567682060008201527f6163746976652070726f78790000000000000000000000000000000000000000602082015250565b600061256f602c83611f1f565b915061257a82612513565b604082019050919050565b6000602082019050818103600083015261259e81612562565b9050919050565b7f4e487b7100000000000000000000000000000000000000000000000000000000600052601160045260246000fd5b60006125df82612038565b91506125ea83612038565b9250828201905080821115612602576126016125a5565b5b92915050565b7f616d6f756e74206d696e7465642077696c6c206265206f76657220746865206360008201527f617070656420737570706c792061742031303030303030210000000000000000602082015250565b6000612664603883611f1f565b915061266f82612608565b604082019050919050565b6000602082019050818103600083015261269381612657565b9050919050565b7f555550535570677261646561626c653a206d757374206e6f742062652063616c60008201527f6c6564207468726f7567682064656c656761746563616c6c0000000000000000602082015250565b60006126f6603883611f1f565b91506127018261269a565b604082019050919050565b60006020820190508181036000830152612725816126e9565b9050919050565b7f496e697469616c697a61626c653a20636f6e747261637420697320616c72656160008201527f647920696e697469616c697a6564000000000000000000000000000000000000602082015250565b6000612788602e83611f1f565b91506127938261272c565b604082019050919050565b600060208201905081810360008301526127b78161277b565b9050919050565b6000819050919050565b6000819050919050565b60006127ed6127e86127e3846127be565b6127c8565b612161565b9050919050565b6127fd816127d2565b82525050565b600060208201905061281860008301846127f4565b92915050565b7f45524332303a2064656372656173656420616c6c6f77616e63652062656c6f7760008201527f207a65726f000000000000000000000000000000000000000000000000000000602082015250565b600061287a602583611f1f565b91506128858261281e565b604082019050919050565b600060208201905081810360008301526128a98161286d565b9050919050565b7f4e487b7100000000000000000000000000000000000000000000000000000000600052601260045260246000fd5b60006128ea82612038565b91506128f583612038565b925082612905576129046128b0565b5b828204905092915050565b600061291b82612038565b915061292683612038565b925082820261293481612038565b9150828204841483151761294b5761294a6125a5565b5b5092915050565b7f4f776e61626c653a206e6577206f776e657220697320746865207a65726f206160008201527f6464726573730000000000000000000000000000000000000000000000000000602082015250565b60006129ae602683611f1f565b91506129b982612952565b604082019050919050565b600060208201905081810360008301526129dd816129a1565b9050919050565b7f45524332303a20617070726f76652066726f6d20746865207a65726f2061646460008201527f7265737300000000000000000000000000000000000000000000000000000000602082015250565b6000612a40602483611f1f565b9150612a4b826129e4565b604082019050919050565b60006020820190508181036000830152612a6f81612a33565b9050919050565b7f45524332303a20617070726f766520746f20746865207a65726f20616464726560008201527f7373000000000000000000000000000000000000000000000000000000000000602082015250565b6000612ad2602283611f1f565b9150612add82612a76565b604082019050919050565b60006020820190508181036000830152612b0181612ac5565b9050919050565b7f45524332303a20696e73756666696369656e7420616c6c6f77616e6365000000600082015250565b6000612b3e601d83611f1f565b9150612b4982612b08565b602082019050919050565b60006020820190508181036000830152612b6d81612b31565b9050919050565b7f45524332303a207472616e736665722066726f6d20746865207a65726f20616460008201527f6472657373000000000000000000000000000000000000000000000000000000602082015250565b6000612bd0602583611f1f565b9150612bdb82612b74565b604082019050919050565b60006020820190508181036000830152612bff81612bc3565b9050919050565b7f45524332303a207472616e7366657220746f20746865207a65726f206164647260008201527f6573730000000000000000000000000000000000000000000000000000000000602082015250565b6000612c62602383611f1f565b9150612c6d82612c06565b604082019050919050565b60006020820190508181036000830152612c9181612c55565b9050919050565b7f45524332303a207472616e7366657220616d6f756e742065786365656473206260008201527f616c616e63650000000000000000000000000000000000000000000000000000602082015250565b6000612cf4602683611f1f565b9150612cff82612c98565b604082019050919050565b60006020820190508181036000830152612d2381612ce7565b9050919050565b612d3381612383565b8114612d3e57600080fd5b50565b600081519050612d5081612d2a565b92915050565b600060208284031215612d6c57612d6b611fd0565b5b6000612d7a84828501612d41565b91505092915050565b7f45524331393637557067726164653a206e657720696d706c656d656e7461746960008201527f6f6e206973206e6f742055555053000000000000000000000000000000000000602082015250565b6000612ddf602e83611f1f565b9150612dea82612d83565b604082019050919050565b60006020820190508181036000830152612e0e81612dd2565b9050919050565b7f45524331393637557067726164653a20756e737570706f727465642070726f7860008201527f6961626c65555549440000000000000000000000000000000000000000000000602082015250565b6000612e71602983611f1f565b9150612e7c82612e15565b604082019050919050565b60006020820190508181036000830152612ea081612e64565b9050919050565b7f4f776e61626c653a2063616c6c6572206973206e6f7420746865206f776e6572600082015250565b6000612edd602083611f1f565b9150612ee882612ea7565b602082019050919050565b60006020820190508181036000830152612f0c81612ed0565b9050919050565b7f45524332303a206d696e7420746f20746865207a65726f206164647265737300600082015250565b6000612f49601f83611f1f565b9150612f5482612f13565b602082019050919050565b60006020820190508181036000830152612f7881612f3c565b9050919050565b7f45524332303a206275726e2066726f6d20746865207a65726f2061646472657360008201527f7300000000000000000000000000000000000000000000000000000000000000602082015250565b6000612fdb602183611f1f565b9150612fe682612f7f565b604082019050919050565b6000602082019050818103600083015261300a81612fce565b9050919050565b7f45524332303a206275726e20616d6f756e7420657863656564732062616c616e60008201527f6365000000000000000000000000000000000000000000000000000000000000602082015250565b600061306d602283611f1f565b915061307882613011565b604082019050919050565b6000602082019050818103600083015261309c81613060565b9050919050565b7f496e697469616c697a61626c653a20636f6e7472616374206973206e6f74206960008201527f6e697469616c697a696e67000000000000000000000000000000000000000000602082015250565b60006130ff602b83611f1f565b915061310a826130a3565b604082019050919050565b6000602082019050818103600083015261312e816130f2565b9050919050565b7f455243313936373a206e657720696d706c656d656e746174696f6e206973206e60008201527f6f74206120636f6e747261637400000000000000000000000000000000000000602082015250565b6000613191602d83611f1f565b915061319c82613135565b604082019050919050565b600060208201905081810360008301526131c081613184565b9050919050565b60008190508160005260206000209050919050565b60006020601f8301049050919050565b600082821b905092915050565b6000600883026132297fffffffffffffffffffffffffffffffffffffffffffffffffffffffffffffffff826131ec565b61323386836131ec565b95508019841693508086168417925050509392505050565b600061326661326161325c84612038565b6127c8565b612038565b9050919050565b6000819050919050565b6132808361324b565b61329461328c8261326d565b8484546131f9565b825550505050565b600090565b6132a961329c565b6132b4818484613277565b505050565b5b818110156132d8576132cd6000826132a1565b6001810190506132ba565b5050565b601f82111561331d576132ee816131c7565b6132f7846131dc565b81016020851015613306578190505b61331a613312856131dc565b8301826132b9565b50505b505050565b600082821c905092915050565b600061334060001984600802613322565b1980831691505092915050565b6000613359838361332f565b9150826002028217905092915050565b61337282611f14565b67ffffffffffffffff81111561338b5761338a6121fc565b5b6133958254612450565b6133a08282856132dc565b600060209050601f8311600181146133d357600084156133c1578287015190505b6133cb858261334d565b865550613433565b601f1984166133e1866131c7565b60005b82811015613409578489015182556001820191506020850194506020810190506133e4565b868310156134265784890151613422601f89168261332f565b8355505b6001600288020188555050505b505050505050565b7f416464726573733a2064656c65676174652063616c6c20746f206e6f6e2d636f60008201527f6e74726163740000000000000000000000000000000000000000000000000000602082015250565b6000613497602683611f1f565b91506134a28261343b565b604082019050919050565b600060208201905081810360008301526134c68161348a565b9050919050565b600081519050919050565b600081905092915050565b60006134ee826134cd565b6134f881856134d8565b9350613508818560208601611f30565b80840191505092915050565b600061352082846134e3565b91508190509291505056fe416464726573733a206c6f772d6c6576656c2064656c65676174652063616c6c206661696c6564a26469706673582212209c08eada68876f76c03437485e7b0f01bbe44db3002b2ab8bdc337ebc60e39b164736f6c63430008110033",
  "linkReferences": {},
  "deployedLinkReferences": {}
}