{
  "_format": "hh-sol-artifact-1",
  "contractName": "KELVIN",
  "sourceName": "contracts/erc721-kelvin.sol",
  "abi": [
    {
      "inputs": [],
      "stateMutability": "nonpayable",
      "type": "constructor"
    },
    {
      "anonymous": false,
      "inputs": [
        {
          "indexed": false,
          "internalType": "address",
          "name": "previousAdmin",
          "type": "address"
        },
        {
          "indexed": false,
          "internalType": "address",
          "name": "newAdmin",
          "type": "address"
        }
      ],
      "name": "AdminChanged",
      "type": "event"
    },
    {
      "anonymous": false,
      "inputs": [
        {
          "indexed": true,
          "internalType": "address",
          "name": "owner",
          "type": "address"
        },
        {
          "indexed": true,
          "internalType": "address",
          "name": "approved",
          "type": "address"
        },
        {
          "indexed": true,
          "internalType": "uint256",
          "name": "tokenId",
          "type": "uint256"
        }
      ],
      "name": "Approval",
      "type": "event"
    },
    {
      "anonymous": false,
      "inputs": [
        {
          "indexed": true,
          "internalType": "address",
          "name": "owner",
          "type": "address"
        },
        {
          "indexed": true,
          "internalType": "address",
          "name": "operator",
          "type": "address"
        },
        {
          "indexed": false,
          "internalType": "bool",
          "name": "approved",
          "type": "bool"
        }
      ],
      "name": "ApprovalForAll",
      "type": "event"
    },
    {
      "anonymous": false,
      "inputs": [
        {
          "indexed": true,
          "internalType": "address",
          "name": "beacon",
          "type": "address"
        }
      ],
      "name": "BeaconUpgraded",
      "type": "event"
    },
    {
      "anonymous": false,
      "inputs": [
        {
          "indexed": false,
          "internalType": "uint8",
          "name": "version",
          "type": "uint8"
        }
      ],
      "name": "Initialized",
      "type": "event"
    },
    {
      "anonymous": false,
      "inputs": [
        {
          "indexed": true,
          "internalType": "address",
          "name": "previousOwner",
          "type": "address"
        },
        {
          "indexed": true,
          "internalType": "address",
          "name": "newOwner",
          "type": "address"
        }
      ],
      "name": "OwnershipTransferred",
      "type": "event"
    },
    {
      "anonymous": false,
      "inputs": [
        {
          "indexed": false,
          "internalType": "address",
          "name": "account",
          "type": "address"
        }
      ],
      "name": "Paused",
      "type": "event"
    },
    {
      "anonymous": false,
      "inputs": [
        {
          "indexed": true,
          "internalType": "address",
          "name": "from",
          "type": "address"
        },
        {
          "indexed": true,
          "internalType": "address",
          "name": "to",
          "type": "address"
        },
        {
          "indexed": true,
          "internalType": "uint256",
          "name": "tokenId",
          "type": "uint256"
        }
      ],
      "name": "Transfer",
      "type": "event"
    },
    {
      "anonymous": false,
      "inputs": [
        {
          "indexed": false,
          "internalType": "address",
          "name": "account",
          "type": "address"
        }
      ],
      "name": "Unpaused",
      "type": "event"
    },
    {
      "anonymous": false,
      "inputs": [
        {
          "indexed": true,
          "internalType": "address",
          "name": "implementation",
          "type": "address"
        }
      ],
      "name": "Upgraded",
      "type": "event"
    },
    {
      "inputs": [
        {
          "internalType": "address",
          "name": "to",
          "type": "address"
        },
        {
          "internalType": "uint256",
          "name": "tokenId",
          "type": "uint256"
        }
      ],
      "name": "approve",
      "outputs": [],
      "stateMutability": "nonpayable",
      "type": "function"
    },
    {
      "inputs": [
        {
          "internalType": "address",
          "name": "owner",
          "type": "address"
        }
      ],
      "name": "balanceOf",
      "outputs": [
        {
          "internalType": "uint256",
          "name": "",
          "type": "uint256"
        }
      ],
      "stateMutability": "view",
      "type": "function"
    },
    {
      "inputs": [
        {
          "internalType": "uint256",
          "name": "tokenId",
          "type": "uint256"
        }
      ],
      "name": "burn",
      "outputs": [],
      "stateMutability": "nonpayable",
      "type": "function"
    },
    {
      "inputs": [
        {
          "internalType": "uint256",
          "name": "tokenId",
          "type": "uint256"
        }
      ],
      "name": "getApproved",
      "outputs": [
        {
          "internalType": "address",
          "name": "",
          "type": "address"
        }
      ],
      "stateMutability": "view",
      "type": "function"
    },
    {
      "inputs": [],
      "name": "initialize",
      "outputs": [],
      "stateMutability": "nonpayable",
      "type": "function"
    },
    {
      "inputs": [
        {
          "internalType": "address",
          "name": "owner",
          "type": "address"
        },
        {
          "internalType": "address",
          "name": "operator",
          "type": "address"
        }
      ],
      "name": "isApprovedForAll",
      "outputs": [
        {
          "internalType": "bool",
          "name": "",
          "type": "bool"
        }
      ],
      "stateMutability": "view",
      "type": "function"
    },
    {
      "inputs": [],
      "name": "name",
      "outputs": [
        {
          "internalType": "string",
          "name": "",
          "type": "string"
        }
      ],
      "stateMutability": "view",
      "type": "function"
    },
    {
      "inputs": [],
      "name": "owner",
      "outputs": [
        {
          "internalType": "address",
          "name": "",
          "type": "address"
        }
      ],
      "stateMutability": "view",
      "type": "function"
    },
    {
      "inputs": [
        {
          "internalType": "uint256",
          "name": "tokenId",
          "type": "uint256"
        }
      ],
      "name": "ownerOf",
      "outputs": [
        {
          "internalType": "address",
          "name": "",
          "type": "address"
        }
      ],
      "stateMutability": "view",
      "type": "function"
    },
    {
      "inputs": [],
      "name": "pause",
      "outputs": [],
      "stateMutability": "nonpayable",
      "type": "function"
    },
    {
      "inputs": [],
      "name": "paused",
      "outputs": [
        {
          "internalType": "bool",
          "name": "",
          "type": "bool"
        }
      ],
      "stateMutability": "view",
      "type": "function"
    },
    {
      "inputs": [],
      "name": "proxiableUUID",
      "outputs": [
        {
          "internalType": "bytes32",
          "name": "",
          "type": "bytes32"
        }
      ],
      "stateMutability": "view",
      "type": "function"
    },
    {
      "inputs": [],
      "name": "renounceOwnership",
      "outputs": [],
      "stateMutability": "nonpayable",
      "type": "function"
    },
    {
      "inputs": [
        {
          "internalType": "address",
          "name": "to",
          "type": "address"
        }
      ],
      "name": "safeMint",
      "outputs": [],
      "stateMutability": "nonpayable",
      "type": "function"
    },
    {
      "inputs": [
        {
          "internalType": "address",
          "name": "from",
          "type": "address"
        },
        {
          "internalType": "address",
          "name": "to",
          "type": "address"
        },
        {
          "internalType": "uint256",
          "name": "tokenId",
          "type": "uint256"
        }
      ],
      "name": "safeTransferFrom",
      "outputs": [],
      "stateMutability": "nonpayable",
      "type": "function"
    },
    {
      "inputs": [
        {
          "internalType": "address",
          "name": "from",
          "type": "address"
        },
        {
          "internalType": "address",
          "name": "to",
          "type": "address"
        },
        {
          "internalType": "uint256",
          "name": "tokenId",
          "type": "uint256"
        },
        {
          "internalType": "bytes",
          "name": "data",
          "type": "bytes"
        }
      ],
      "name": "safeTransferFrom",
      "outputs": [],
      "stateMutability": "nonpayable",
      "type": "function"
    },
    {
      "inputs": [
        {
          "internalType": "address",
          "name": "operator",
          "type": "address"
        },
        {
          "internalType": "bool",
          "name": "approved",
          "type": "bool"
        }
      ],
      "name": "setApprovalForAll",
      "outputs": [],
      "stateMutability": "nonpayable",
      "type": "function"
    },
    {
      "inputs": [
        {
          "internalType": "bytes4",
          "name": "interfaceId",
          "type": "bytes4"
        }
      ],
      "name": "supportsInterface",
      "outputs": [
        {
          "internalType": "bool",
          "name": "",
          "type": "bool"
        }
      ],
      "stateMutability": "view",
      "type": "function"
    },
    {
      "inputs": [],
      "name": "symbol",
      "outputs": [
        {
          "internalType": "string",
          "name": "",
          "type": "string"
        }
      ],
      "stateMutability": "view",
      "type": "function"
    },
    {
      "inputs": [
        {
          "internalType": "uint256",
          "name": "index",
          "type": "uint256"
        }
      ],
      "name": "tokenByIndex",
      "outputs": [
        {
          "internalType": "uint256",
          "name": "",
          "type": "uint256"
        }
      ],
      "stateMutability": "view",
      "type": "function"
    },
    {
      "inputs": [
        {
          "internalType": "address",
          "name": "owner",
          "type": "address"
        },
        {
          "internalType": "uint256",
          "name": "index",
          "type": "uint256"
        }
      ],
      "name": "tokenOfOwnerByIndex",
      "outputs": [
        {
          "internalType": "uint256",
          "name": "",
          "type": "uint256"
        }
      ],
      "stateMutability": "view",
      "type": "function"
    },
    {
      "inputs": [
        {
          "internalType": "uint256",
          "name": "tokenId",
          "type": "uint256"
        }
      ],
      "name": "tokenURI",
      "outputs": [
        {
          "internalType": "string",
          "name": "",
          "type": "string"
        }
      ],
      "stateMutability": "view",
      "type": "function"
    },
    {
      "inputs": [],
      "name": "totalSupply",
      "outputs": [
        {
          "internalType": "uint256",
          "name": "",
          "type": "uint256"
        }
      ],
      "stateMutability": "view",
      "type": "function"
    },
    {
      "inputs": [
        {
          "internalType": "address",
          "name": "from",
          "type": "address"
        },
        {
          "internalType": "address",
          "name": "to",
          "type": "address"
        },
        {
          "internalType": "uint256",
          "name": "tokenId",
          "type": "uint256"
        }
      ],
      "name": "transferFrom",
      "outputs": [],
      "stateMutability": "nonpayable",
      "type": "function"
    },
    {
      "inputs": [
        {
          "internalType": "address",
          "name": "newOwner",
          "type": "address"
        }
      ],
      "name": "transferOwnership",
      "outputs": [],
      "stateMutability": "nonpayable",
      "type": "function"
    },
    {
      "inputs": [],
      "name": "unpause",
      "outputs": [],
      "stateMutability": "nonpayable",
      "type": "function"
    },
    {
      "inputs": [
        {
          "internalType": "address",
          "name": "newImplementation",
          "type": "address"
        }
      ],
      "name": "upgradeTo",
      "outputs": [],
      "stateMutability": "nonpayable",
      "type": "function"
    },
    {
      "inputs": [
        {
          "internalType": "address",
          "name": "newImplementation",
          "type": "address"
        },
        {
          "internalType": "bytes",
          "name": "data",
          "type": "bytes"
        }
      ],
      "name": "upgradeToAndCall",
      "outputs": [],
      "stateMutability": "payable",
      "type": "function"
    }
  ],
  "bytecode": "0x60a06040523073ffffffffffffffffffffffffffffffffffffffff1660809073ffffffffffffffffffffffffffffffffffffffff168152503480156200004457600080fd5b50620000556200005b60201b60201c565b62000206565b600060019054906101000a900460ff1615620000ae576040517f08c379a0000000000000000000000000000000000000000000000000000000008152600401620000a590620001a9565b60405180910390fd5b60ff801660008054906101000a900460ff1660ff161015620001205760ff6000806101000a81548160ff021916908360ff1602179055507f7f26b83ff96e1f2b6a682f133852f6798a09c465da95921460cefb384740249860ff604051620001179190620001e9565b60405180910390a15b565b600082825260208201905092915050565b7f496e697469616c697a61626c653a20636f6e747261637420697320696e69746960008201527f616c697a696e6700000000000000000000000000000000000000000000000000602082015250565b60006200019160278362000122565b91506200019e8262000133565b604082019050919050565b60006020820190508181036000830152620001c48162000182565b9050919050565b600060ff82169050919050565b620001e381620001cb565b82525050565b6000602082019050620002006000830184620001d8565b92915050565b6080516150516200023e600039600081816109a401528181610a3201528181610bea01528181610c780152610d9901526150516000f3fe6080604052600436106101b75760003560e01c806352d1902d116100ec5780638da5cb5b1161008a578063b88d4fde11610064578063b88d4fde146105c3578063c87b56dd146105ec578063e985e9c514610629578063f2fde38b14610666576101b7565b80638da5cb5b1461054457806395d89b411461056f578063a22cb4651461059a576101b7565b806370a08231116100c657806370a08231146104c2578063715018a6146104ff5780638129fc1c146105165780638456cb591461052d576101b7565b806352d1902d1461042f5780635c975abb1461045a5780636352211e14610485576101b7565b80633659cfe61161015957806342842e0e1161013357806342842e0e1461038457806342966c68146103ad5780634f1ef286146103d65780634f6ccce7146103f2576101b7565b80633659cfe61461031b5780633f4ba83a1461034457806340d097c31461035b576101b7565b8063095ea7b311610195578063095ea7b31461026157806318160ddd1461028a57806323b872dd146102b55780632f745c59146102de576101b7565b806301ffc9a7146101bc57806306fdde03146101f9578063081812fc14610224575b600080fd5b3480156101c857600080fd5b506101e360048036038101906101de9190613566565b61068f565b6040516101f091906135ae565b60405180910390f35b34801561020557600080fd5b5061020e6106a1565b60405161021b9190613659565b60405180910390f35b34801561023057600080fd5b5061024b600480360381019061024691906136b1565b610733565b604051610258919061371f565b60405180910390f35b34801561026d57600080fd5b5061028860048036038101906102839190613766565b610779565b005b34801561029657600080fd5b5061029f610890565b6040516102ac91906137b5565b60405180910390f35b3480156102c157600080fd5b506102dc60048036038101906102d791906137d0565b61089d565b005b3480156102ea57600080fd5b5061030560048036038101906103009190613766565b6108fd565b60405161031291906137b5565b60405180910390f35b34801561032757600080fd5b50610342600480360381019061033d9190613823565b6109a2565b005b34801561035057600080fd5b50610359610b2a565b005b34801561036757600080fd5b50610382600480360381019061037d9190613823565b610b3c565b005b34801561039057600080fd5b506103ab60048036038101906103a691906137d0565b610b6c565b005b3480156103b957600080fd5b506103d460048036038101906103cf91906136b1565b610b8c565b005b6103f060048036038101906103eb9190613985565b610be8565b005b3480156103fe57600080fd5b50610419600480360381019061041491906136b1565b610d24565b60405161042691906137b5565b60405180910390f35b34801561043b57600080fd5b50610444610d95565b60405161045191906139fa565b60405180910390f35b34801561046657600080fd5b5061046f610e4e565b60405161047c91906135ae565b60405180910390f35b34801561049157600080fd5b506104ac60048036038101906104a791906136b1565b610e65565b6040516104b9919061371f565b60405180910390f35b3480156104ce57600080fd5b506104e960048036038101906104e49190613823565b610eeb565b6040516104f691906137b5565b60405180910390f35b34801561050b57600080fd5b50610514610fa2565b005b34801561052257600080fd5b5061052b610fb6565b005b34801561053957600080fd5b50610542611188565b005b34801561055057600080fd5b5061055961119a565b604051610566919061371f565b60405180910390f35b34801561057b57600080fd5b506105846111c4565b6040516105919190613659565b60405180910390f35b3480156105a657600080fd5b506105c160048036038101906105bc9190613a41565b611256565b005b3480156105cf57600080fd5b506105ea60048036038101906105e59190613a81565b61126c565b005b3480156105f857600080fd5b50610613600480360381019061060e91906136b1565b6112ce565b6040516106209190613659565b60405180910390f35b34801561063557600080fd5b50610650600480360381019061064b9190613b04565b611336565b60405161065d91906135ae565b60405180910390f35b34801561067257600080fd5b5061068d60048036038101906106889190613823565b6113ca565b005b600061069a8261144d565b9050919050565b6060606580546106b090613b73565b80601f01602080910402602001604051908101604052809291908181526020018280546106dc90613b73565b80156107295780601f106106fe57610100808354040283529160200191610729565b820191906000526020600020905b81548152906001019060200180831161070c57829003601f168201915b5050505050905090565b600061073e826114c7565b6069600083815260200190815260200160002060009054906101000a900473ffffffffffffffffffffffffffffffffffffffff169050919050565b600061078482610e65565b90508073ffffffffffffffffffffffffffffffffffffffff168373ffffffffffffffffffffffffffffffffffffffff16036107f4576040517f08c379a00000000000000000000000000000000000000000000000000000000081526004016107eb90613c16565b60405180910390fd5b8073ffffffffffffffffffffffffffffffffffffffff16610813611512565b73ffffffffffffffffffffffffffffffffffffffff16148061084257506108418161083c611512565b611336565b5b610881576040517f08c379a000000000000000000000000000000000000000000000000000000000815260040161087890613ca8565b60405180910390fd5b61088b838361151a565b505050565b6000609980549050905090565b6108ae6108a8611512565b826115d3565b6108ed576040517f08c379a00000000000000000000000000000000000000000000000000000000081526004016108e490613d3a565b60405180910390fd5b6108f8838383611668565b505050565b600061090883610eeb565b8210610949576040517f08c379a000000000000000000000000000000000000000000000000000000000815260040161094090613dcc565b60405180910390fd5b609760008473ffffffffffffffffffffffffffffffffffffffff1673ffffffffffffffffffffffffffffffffffffffff168152602001908152602001600020600083815260200190815260200160002054905092915050565b7f000000000000000000000000000000000000000000000000000000000000000073ffffffffffffffffffffffffffffffffffffffff163073ffffffffffffffffffffffffffffffffffffffff1603610a30576040517f08c379a0000000000000000000000000000000000000000000000000000000008152600401610a2790613e5e565b60405180910390fd5b7f000000000000000000000000000000000000000000000000000000000000000073ffffffffffffffffffffffffffffffffffffffff16610a6f611961565b73ffffffffffffffffffffffffffffffffffffffff1614610ac5576040517f08c379a0000000000000000000000000000000000000000000000000000000008152600401610abc90613ef0565b60405180910390fd5b610ace816119b8565b610b2781600067ffffffffffffffff811115610aed57610aec61385a565b5b6040519080825280601f01601f191660200182016040528015610b1f5781602001600182028036833780820191505090505b5060006119c3565b50565b610b32611b31565b610b3a611baf565b565b610b44611b31565b6000610b516101c3611c12565b9050610b5e6101c3611c20565b610b688282611c36565b5050565b610b878383836040518060200160405280600081525061126c565b505050565b610b9d610b97611512565b826115d3565b610bdc576040517f08c379a0000000000000000000000000000000000000000000000000000000008152600401610bd390613d3a565b60405180910390fd5b610be581611c54565b50565b7f000000000000000000000000000000000000000000000000000000000000000073ffffffffffffffffffffffffffffffffffffffff163073ffffffffffffffffffffffffffffffffffffffff1603610c76576040517f08c379a0000000000000000000000000000000000000000000000000000000008152600401610c6d90613e5e565b60405180910390fd5b7f000000000000000000000000000000000000000000000000000000000000000073ffffffffffffffffffffffffffffffffffffffff16610cb5611961565b73ffffffffffffffffffffffffffffffffffffffff1614610d0b576040517f08c379a0000000000000000000000000000000000000000000000000000000008152600401610d0290613ef0565b60405180910390fd5b610d14826119b8565b610d20828260016119c3565b5050565b6000610d2e610890565b8210610d6f576040517f08c379a0000000000000000000000000000000000000000000000000000000008152600401610d6690613f82565b60405180910390fd5b60998281548110610d8357610d82613fa2565b5b90600052602060002001549050919050565b60007f000000000000000000000000000000000000000000000000000000000000000073ffffffffffffffffffffffffffffffffffffffff163073ffffffffffffffffffffffffffffffffffffffff1614610e25576040517f08c379a0000000000000000000000000000000000000000000000000000000008152600401610e1c90614043565b60405180910390fd5b7f360894a13ba1a3210667c828492db98dca3e2076cc3735a920a3ca505d382bbc60001b905090565b600060c960009054906101000a900460ff16905090565b600080610e7183611da2565b9050600073ffffffffffffffffffffffffffffffffffffffff168173ffffffffffffffffffffffffffffffffffffffff1603610ee2576040517f08c379a0000000000000000000000000000000000000000000000000000000008152600401610ed9906140af565b60405180910390fd5b80915050919050565b60008073ffffffffffffffffffffffffffffffffffffffff168273ffffffffffffffffffffffffffffffffffffffff1603610f5b576040517f08c379a0000000000000000000000000000000000000000000000000000000008152600401610f5290614141565b60405180910390fd5b606860008373ffffffffffffffffffffffffffffffffffffffff1673ffffffffffffffffffffffffffffffffffffffff168152602001908152602001600020549050919050565b610faa611b31565b610fb46000611ddf565b565b60008060019054906101000a900460ff16159050808015610fe75750600160008054906101000a900460ff1660ff16105b806110145750610ff630611ea5565b1580156110135750600160008054906101000a900460ff1660ff16145b5b611053576040517f08c379a000000000000000000000000000000000000000000000000000000000815260040161104a906141d3565b60405180910390fd5b60016000806101000a81548160ff021916908360ff1602179055508015611090576001600060016101000a81548160ff0219169083151502179055505b6111046040518060400160405280600681526020017f4b454c56494e00000000000000000000000000000000000000000000000000008152506040518060400160405280600381526020017f4b454c0000000000000000000000000000000000000000000000000000000000815250611ec8565b61110c611f25565b611114611f76565b61111c611fcf565b611124612028565b61112c612079565b80156111855760008060016101000a81548160ff0219169083151502179055507f7f26b83ff96e1f2b6a682f133852f6798a09c465da95921460cefb3847402498600160405161117c9190614245565b60405180910390a15b50565b611190611b31565b6111986120ca565b565b600060fb60009054906101000a900473ffffffffffffffffffffffffffffffffffffffff16905090565b6060606680546111d390613b73565b80601f01602080910402602001604051908101604052809291908181526020018280546111ff90613b73565b801561124c5780601f106112215761010080835404028352916020019161124c565b820191906000526020600020905b81548152906001019060200180831161122f57829003601f168201915b5050505050905090565b611268611261611512565b838361212d565b5050565b61127d611277611512565b836115d3565b6112bc576040517f08c379a00000000000000000000000000000000000000000000000000000000081526004016112b390613d3a565b60405180910390fd5b6112c884848484612299565b50505050565b60606112d9826114c7565b60006112e36122f5565b90506000815111611303576040518060200160405280600081525061132e565b8061130d84612332565b60405160200161131e92919061429c565b6040516020818303038152906040525b915050919050565b6000606a60008473ffffffffffffffffffffffffffffffffffffffff1673ffffffffffffffffffffffffffffffffffffffff16815260200190815260200160002060008373ffffffffffffffffffffffffffffffffffffffff1673ffffffffffffffffffffffffffffffffffffffff16815260200190815260200160002060009054906101000a900460ff16905092915050565b6113d2611b31565b600073ffffffffffffffffffffffffffffffffffffffff168173ffffffffffffffffffffffffffffffffffffffff1603611441576040517f08c379a000000000000000000000000000000000000000000000000000000000815260040161143890614332565b60405180910390fd5b61144a81611ddf565b50565b60007f780e9d63000000000000000000000000000000000000000000000000000000007bffffffffffffffffffffffffffffffffffffffffffffffffffffffff1916827bffffffffffffffffffffffffffffffffffffffffffffffffffffffff191614806114c057506114bf82612400565b5b9050919050565b6114d0816124e2565b61150f576040517f08c379a0000000000000000000000000000000000000000000000000000000008152600401611506906140af565b60405180910390fd5b50565b600033905090565b816069600083815260200190815260200160002060006101000a81548173ffffffffffffffffffffffffffffffffffffffff021916908373ffffffffffffffffffffffffffffffffffffffff160217905550808273ffffffffffffffffffffffffffffffffffffffff1661158d83610e65565b73ffffffffffffffffffffffffffffffffffffffff167f8c5be1e5ebec7d5bd14f71427d1e84f3dd0314c0f7b2291e5b200ac8c7c3b92560405160405180910390a45050565b6000806115df83610e65565b90508073ffffffffffffffffffffffffffffffffffffffff168473ffffffffffffffffffffffffffffffffffffffff16148061162157506116208185611336565b5b8061165f57508373ffffffffffffffffffffffffffffffffffffffff1661164784610733565b73ffffffffffffffffffffffffffffffffffffffff16145b91505092915050565b8273ffffffffffffffffffffffffffffffffffffffff1661168882610e65565b73ffffffffffffffffffffffffffffffffffffffff16146116de576040517f08c379a00000000000000000000000000000000000000000000000000000000081526004016116d5906143c4565b60405180910390fd5b600073ffffffffffffffffffffffffffffffffffffffff168273ffffffffffffffffffffffffffffffffffffffff160361174d576040517f08c379a000000000000000000000000000000000000000000000000000000000815260040161174490614456565b60405180910390fd5b61175a8383836001612523565b8273ffffffffffffffffffffffffffffffffffffffff1661177a82610e65565b73ffffffffffffffffffffffffffffffffffffffff16146117d0576040517f08c379a00000000000000000000000000000000000000000000000000000000081526004016117c7906143c4565b60405180910390fd5b6069600082815260200190815260200160002060006101000a81549073ffffffffffffffffffffffffffffffffffffffff02191690556001606860008573ffffffffffffffffffffffffffffffffffffffff1673ffffffffffffffffffffffffffffffffffffffff168152602001908152602001600020600082825403925050819055506001606860008473ffffffffffffffffffffffffffffffffffffffff1673ffffffffffffffffffffffffffffffffffffffff16815260200190815260200160002060008282540192505081905550816067600083815260200190815260200160002060006101000a81548173ffffffffffffffffffffffffffffffffffffffff021916908373ffffffffffffffffffffffffffffffffffffffff160217905550808273ffffffffffffffffffffffffffffffffffffffff168473ffffffffffffffffffffffffffffffffffffffff167fddf252ad1be2c89b69c2b068fc378daa952ba7f163c4a11628f55a4df523b3ef60405160405180910390a461195c838383600161253d565b505050565b600061198f7f360894a13ba1a3210667c828492db98dca3e2076cc3735a920a3ca505d382bbc60001b612543565b60000160009054906101000a900473ffffffffffffffffffffffffffffffffffffffff16905090565b6119c0611b31565b50565b6119ef7f4910fdfa16fed3260ed0e7147f7cc6da11a60208b5b9406d12a635614ffd914360001b61254d565b60000160009054906101000a900460ff1615611a1357611a0e83612557565b611b2c565b8273ffffffffffffffffffffffffffffffffffffffff166352d1902d6040518163ffffffff1660e01b8152600401602060405180830381865afa925050508015611a7b57506040513d601f19601f82011682018060405250810190611a7891906144a2565b60015b611aba576040517f08c379a0000000000000000000000000000000000000000000000000000000008152600401611ab190614541565b60405180910390fd5b7f360894a13ba1a3210667c828492db98dca3e2076cc3735a920a3ca505d382bbc60001b8114611b1f576040517f08c379a0000000000000000000000000000000000000000000000000000000008152600401611b16906145d3565b60405180910390fd5b50611b2b838383612610565b5b505050565b611b39611512565b73ffffffffffffffffffffffffffffffffffffffff16611b5761119a565b73ffffffffffffffffffffffffffffffffffffffff1614611bad576040517f08c379a0000000000000000000000000000000000000000000000000000000008152600401611ba49061463f565b60405180910390fd5b565b611bb761263c565b600060c960006101000a81548160ff0219169083151502179055507f5db9ee0a495bf2e6ff9c91a7834c1ba4fdd244a5e8aa4e537bd38aeae4b073aa611bfb611512565b604051611c08919061371f565b60405180910390a1565b600081600001549050919050565b6001816000016000828254019250508190555050565b611c50828260405180602001604052806000815250612685565b5050565b6000611c5f82610e65565b9050611c6f816000846001612523565b611c7882610e65565b90506069600083815260200190815260200160002060006101000a81549073ffffffffffffffffffffffffffffffffffffffff02191690556001606860008373ffffffffffffffffffffffffffffffffffffffff1673ffffffffffffffffffffffffffffffffffffffff168152602001908152602001600020600082825403925050819055506067600083815260200190815260200160002060006101000a81549073ffffffffffffffffffffffffffffffffffffffff021916905581600073ffffffffffffffffffffffffffffffffffffffff168273ffffffffffffffffffffffffffffffffffffffff167fddf252ad1be2c89b69c2b068fc378daa952ba7f163c4a11628f55a4df523b3ef60405160405180910390a4611d9e81600084600161253d565b5050565b60006067600083815260200190815260200160002060009054906101000a900473ffffffffffffffffffffffffffffffffffffffff169050919050565b600060fb60009054906101000a900473ffffffffffffffffffffffffffffffffffffffff1690508160fb60006101000a81548173ffffffffffffffffffffffffffffffffffffffff021916908373ffffffffffffffffffffffffffffffffffffffff1602179055508173ffffffffffffffffffffffffffffffffffffffff168173ffffffffffffffffffffffffffffffffffffffff167f8be0079c531659141344cd1fd0a4f28419497f9722a3daafe3b4186f6b6457e060405160405180910390a35050565b6000808273ffffffffffffffffffffffffffffffffffffffff163b119050919050565b600060019054906101000a900460ff16611f17576040517f08c379a0000000000000000000000000000000000000000000000000000000008152600401611f0e906146d1565b60405180910390fd5b611f2182826126e0565b5050565b600060019054906101000a900460ff16611f74576040517f08c379a0000000000000000000000000000000000000000000000000000000008152600401611f6b906146d1565b60405180910390fd5b565b600060019054906101000a900460ff16611fc5576040517f08c379a0000000000000000000000000000000000000000000000000000000008152600401611fbc906146d1565b60405180910390fd5b611fcd612753565b565b600060019054906101000a900460ff1661201e576040517f08c379a0000000000000000000000000000000000000000000000000000000008152600401612015906146d1565b60405180910390fd5b6120266127bf565b565b600060019054906101000a900460ff16612077576040517f08c379a000000000000000000000000000000000000000000000000000000000815260040161206e906146d1565b60405180910390fd5b565b600060019054906101000a900460ff166120c8576040517f08c379a00000000000000000000000000000000000000000000000000000000081526004016120bf906146d1565b60405180910390fd5b565b6120d2612820565b600160c960006101000a81548160ff0219169083151502179055507f62e78cea01bee320cd4e420270b5ea74000d11b0c9f74754ebdbfc544b05a258612116611512565b604051612123919061371f565b60405180910390a1565b8173ffffffffffffffffffffffffffffffffffffffff168373ffffffffffffffffffffffffffffffffffffffff160361219b576040517f08c379a00000000000000000000000000000000000000000000000000000000081526004016121929061473d565b60405180910390fd5b80606a60008573ffffffffffffffffffffffffffffffffffffffff1673ffffffffffffffffffffffffffffffffffffffff16815260200190815260200160002060008473ffffffffffffffffffffffffffffffffffffffff1673ffffffffffffffffffffffffffffffffffffffff16815260200190815260200160002060006101000a81548160ff0219169083151502179055508173ffffffffffffffffffffffffffffffffffffffff168373ffffffffffffffffffffffffffffffffffffffff167f17307eab39ab6107e8899845ad3d59bd9653f200f220920489ca2b5937696c318360405161228c91906135ae565b60405180910390a3505050565b6122a4848484611668565b6122b08484848461286a565b6122ef576040517f08c379a00000000000000000000000000000000000000000000000000000000081526004016122e6906147cf565b60405180910390fd5b50505050565b60606040518060400160405280601a81526020017f68747470733a2f2f424153455552492e636f6d2f746f6b656e73000000000000815250905090565b606060006001612341846129f1565b01905060008167ffffffffffffffff8111156123605761235f61385a565b5b6040519080825280601f01601f1916602001820160405280156123925781602001600182028036833780820191505090505b509050600082602001820190505b6001156123f5578080600190039150507f3031323334353637383961626364656600000000000000000000000000000000600a86061a8153600a85816123e9576123e86147ef565b5b049450600085036123a0575b819350505050919050565b60007f80ac58cd000000000000000000000000000000000000000000000000000000007bffffffffffffffffffffffffffffffffffffffffffffffffffffffff1916827bffffffffffffffffffffffffffffffffffffffffffffffffffffffff191614806124cb57507f5b5e139f000000000000000000000000000000000000000000000000000000007bffffffffffffffffffffffffffffffffffffffffffffffffffffffff1916827bffffffffffffffffffffffffffffffffffffffffffffffffffffffff1916145b806124db57506124da82612b44565b5b9050919050565b60008073ffffffffffffffffffffffffffffffffffffffff1661250483611da2565b73ffffffffffffffffffffffffffffffffffffffff1614159050919050565b61252b612820565b61253784848484612bae565b50505050565b50505050565b6000819050919050565b6000819050919050565b61256081611ea5565b61259f576040517f08c379a000000000000000000000000000000000000000000000000000000000815260040161259690614890565b60405180910390fd5b806125cc7f360894a13ba1a3210667c828492db98dca3e2076cc3735a920a3ca505d382bbc60001b612543565b60000160006101000a81548173ffffffffffffffffffffffffffffffffffffffff021916908373ffffffffffffffffffffffffffffffffffffffff16021790555050565b61261983612d0c565b6000825111806126265750805b15612637576126358383612d5b565b505b505050565b612644610e4e565b612683576040517f08c379a000000000000000000000000000000000000000000000000000000000815260040161267a906148fc565b60405180910390fd5b565b61268f8383612e3f565b61269c600084848461286a565b6126db576040517f08c379a00000000000000000000000000000000000000000000000000000000081526004016126d2906147cf565b60405180910390fd5b505050565b600060019054906101000a900460ff1661272f576040517f08c379a0000000000000000000000000000000000000000000000000000000008152600401612726906146d1565b60405180910390fd5b816065908161273e9190614abe565b50806066908161274e9190614abe565b505050565b600060019054906101000a900460ff166127a2576040517f08c379a0000000000000000000000000000000000000000000000000000000008152600401612799906146d1565b60405180910390fd5b600060c960006101000a81548160ff021916908315150217905550565b600060019054906101000a900460ff1661280e576040517f08c379a0000000000000000000000000000000000000000000000000000000008152600401612805906146d1565b60405180910390fd5b61281e612819611512565b611ddf565b565b612828610e4e565b15612868576040517f08c379a000000000000000000000000000000000000000000000000000000000815260040161285f90614bdc565b60405180910390fd5b565b600061288b8473ffffffffffffffffffffffffffffffffffffffff16611ea5565b156129e4578373ffffffffffffffffffffffffffffffffffffffff1663150b7a026128b4611512565b8786866040518563ffffffff1660e01b81526004016128d69493929190614c51565b6020604051808303816000875af192505050801561291257506040513d601f19601f8201168201806040525081019061290f9190614cb2565b60015b612994573d8060008114612942576040519150601f19603f3d011682016040523d82523d6000602084013e612947565b606091505b50600081510361298c576040517f08c379a0000000000000000000000000000000000000000000000000000000008152600401612983906147cf565b60405180910390fd5b805181602001fd5b63150b7a0260e01b7bffffffffffffffffffffffffffffffffffffffffffffffffffffffff1916817bffffffffffffffffffffffffffffffffffffffffffffffffffffffff1916149150506129e9565b600190505b949350505050565b600080600090507a184f03e93ff9f4daa797ed6e38ed64bf6a1f0100000000000000008310612a4f577a184f03e93ff9f4daa797ed6e38ed64bf6a1f0100000000000000008381612a4557612a446147ef565b5b0492506040810190505b6d04ee2d6d415b85acef81000000008310612a8c576d04ee2d6d415b85acef81000000008381612a8257612a816147ef565b5b0492506020810190505b662386f26fc100008310612abb57662386f26fc100008381612ab157612ab06147ef565b5b0492506010810190505b6305f5e1008310612ae4576305f5e1008381612ada57612ad96147ef565b5b0492506008810190505b6127108310612b09576127108381612aff57612afe6147ef565b5b0492506004810190505b60648310612b2c5760648381612b2257612b216147ef565b5b0492506002810190505b600a8310612b3b576001810190505b80915050919050565b60007f01ffc9a7000000000000000000000000000000000000000000000000000000007bffffffffffffffffffffffffffffffffffffffffffffffffffffffff1916827bffffffffffffffffffffffffffffffffffffffffffffffffffffffff1916149050919050565b612bba8484848461305c565b6001811115612bfe576040517f08c379a0000000000000000000000000000000000000000000000000000000008152600401612bf590614d51565b60405180910390fd5b6000829050600073ffffffffffffffffffffffffffffffffffffffff168573ffffffffffffffffffffffffffffffffffffffff1603612c4557612c4081613182565b612c84565b8373ffffffffffffffffffffffffffffffffffffffff168573ffffffffffffffffffffffffffffffffffffffff1614612c8357612c8285826131cb565b5b5b600073ffffffffffffffffffffffffffffffffffffffff168473ffffffffffffffffffffffffffffffffffffffff1603612cc657612cc181613338565b612d05565b8473ffffffffffffffffffffffffffffffffffffffff168473ffffffffffffffffffffffffffffffffffffffff1614612d0457612d038482613409565b5b5b5050505050565b612d1581612557565b8073ffffffffffffffffffffffffffffffffffffffff167fbc7cd75a20ee27fd9adebab32041f755214dbc6bffa90cc0225b39da2e5c2d3b60405160405180910390a250565b6060612d6683611ea5565b612da5576040517f08c379a0000000000000000000000000000000000000000000000000000000008152600401612d9c90614de3565b60405180910390fd5b6000808473ffffffffffffffffffffffffffffffffffffffff1684604051612dcd9190614e3f565b600060405180830381855af49150503d8060008114612e08576040519150601f19603f3d011682016040523d82523d6000602084013e612e0d565b606091505b5091509150612e358282604051806060016040528060278152602001614ff560279139613488565b9250505092915050565b600073ffffffffffffffffffffffffffffffffffffffff168273ffffffffffffffffffffffffffffffffffffffff1603612eae576040517f08c379a0000000000000000000000000000000000000000000000000000000008152600401612ea590614ea2565b60405180910390fd5b612eb7816124e2565b15612ef7576040517f08c379a0000000000000000000000000000000000000000000000000000000008152600401612eee90614f0e565b60405180910390fd5b612f05600083836001612523565b612f0e816124e2565b15612f4e576040517f08c379a0000000000000000000000000000000000000000000000000000000008152600401612f4590614f0e565b60405180910390fd5b6001606860008473ffffffffffffffffffffffffffffffffffffffff1673ffffffffffffffffffffffffffffffffffffffff16815260200190815260200160002060008282540192505081905550816067600083815260200190815260200160002060006101000a81548173ffffffffffffffffffffffffffffffffffffffff021916908373ffffffffffffffffffffffffffffffffffffffff160217905550808273ffffffffffffffffffffffffffffffffffffffff16600073ffffffffffffffffffffffffffffffffffffffff167fddf252ad1be2c89b69c2b068fc378daa952ba7f163c4a11628f55a4df523b3ef60405160405180910390a461305860008383600161253d565b5050565b600181111561317c57600073ffffffffffffffffffffffffffffffffffffffff168473ffffffffffffffffffffffffffffffffffffffff16146130f05780606860008673ffffffffffffffffffffffffffffffffffffffff1673ffffffffffffffffffffffffffffffffffffffff16815260200190815260200160002060008282546130e89190614f5d565b925050819055505b600073ffffffffffffffffffffffffffffffffffffffff168373ffffffffffffffffffffffffffffffffffffffff161461317b5780606860008573ffffffffffffffffffffffffffffffffffffffff1673ffffffffffffffffffffffffffffffffffffffff16815260200190815260200160002060008282546131739190614f91565b925050819055505b5b50505050565b609980549050609a600083815260200190815260200160002081905550609981908060018154018082558091505060019003906000526020600020016000909190919091505550565b600060016131d884610eeb565b6131e29190614f5d565b90506000609860008481526020019081526020016000205490508181146132c7576000609760008673ffffffffffffffffffffffffffffffffffffffff1673ffffffffffffffffffffffffffffffffffffffff168152602001908152602001600020600084815260200190815260200160002054905080609760008773ffffffffffffffffffffffffffffffffffffffff1673ffffffffffffffffffffffffffffffffffffffff168152602001908152602001600020600084815260200190815260200160002081905550816098600083815260200190815260200160002081905550505b6098600084815260200190815260200160002060009055609760008573ffffffffffffffffffffffffffffffffffffffff1673ffffffffffffffffffffffffffffffffffffffff16815260200190815260200160002060008381526020019081526020016000206000905550505050565b6000600160998054905061334c9190614f5d565b90506000609a600084815260200190815260200160002054905060006099838154811061337c5761337b613fa2565b5b90600052602060002001549050806099838154811061339e5761339d613fa2565b5b906000526020600020018190555081609a600083815260200190815260200160002081905550609a60008581526020019081526020016000206000905560998054806133ed576133ec614fc5565b5b6001900381819060005260206000200160009055905550505050565b600061341483610eeb565b905081609760008573ffffffffffffffffffffffffffffffffffffffff1673ffffffffffffffffffffffffffffffffffffffff168152602001908152602001600020600083815260200190815260200160002081905550806098600084815260200190815260200160002081905550505050565b60608315613498578290506134a3565b6134a283836134aa565b5b9392505050565b6000825111156134bd5781518083602001fd5b806040517f08c379a00000000000000000000000000000000000000000000000000000000081526004016134f19190613659565b60405180910390fd5b6000604051905090565b600080fd5b600080fd5b60007fffffffff0000000000000000000000000000000000000000000000000000000082169050919050565b6135438161350e565b811461354e57600080fd5b50565b6000813590506135608161353a565b92915050565b60006020828403121561357c5761357b613504565b5b600061358a84828501613551565b91505092915050565b60008115159050919050565b6135a881613593565b82525050565b60006020820190506135c3600083018461359f565b92915050565b600081519050919050565b600082825260208201905092915050565b60005b838110156136035780820151818401526020810190506135e8565b60008484015250505050565b6000601f19601f8301169050919050565b600061362b826135c9565b61363581856135d4565b93506136458185602086016135e5565b61364e8161360f565b840191505092915050565b600060208201905081810360008301526136738184613620565b905092915050565b6000819050919050565b61368e8161367b565b811461369957600080fd5b50565b6000813590506136ab81613685565b92915050565b6000602082840312156136c7576136c6613504565b5b60006136d58482850161369c565b91505092915050565b600073ffffffffffffffffffffffffffffffffffffffff82169050919050565b6000613709826136de565b9050919050565b613719816136fe565b82525050565b60006020820190506137346000830184613710565b92915050565b613743816136fe565b811461374e57600080fd5b50565b6000813590506137608161373a565b92915050565b6000806040838503121561377d5761377c613504565b5b600061378b85828601613751565b925050602061379c8582860161369c565b9150509250929050565b6137af8161367b565b82525050565b60006020820190506137ca60008301846137a6565b92915050565b6000806000606084860312156137e9576137e8613504565b5b60006137f786828701613751565b935050602061380886828701613751565b92505060406138198682870161369c565b9150509250925092565b60006020828403121561383957613838613504565b5b600061384784828501613751565b91505092915050565b600080fd5b600080fd5b7f4e487b7100000000000000000000000000000000000000000000000000000000600052604160045260246000fd5b6138928261360f565b810181811067ffffffffffffffff821117156138b1576138b061385a565b5b80604052505050565b60006138c46134fa565b90506138d08282613889565b919050565b600067ffffffffffffffff8211156138f0576138ef61385a565b5b6138f98261360f565b9050602081019050919050565b82818337600083830152505050565b6000613928613923846138d5565b6138ba565b90508281526020810184848401111561394457613943613855565b5b61394f848285613906565b509392505050565b600082601f83011261396c5761396b613850565b5b813561397c848260208601613915565b91505092915050565b6000806040838503121561399c5761399b613504565b5b60006139aa85828601613751565b925050602083013567ffffffffffffffff8111156139cb576139ca613509565b5b6139d785828601613957565b9150509250929050565b6000819050919050565b6139f4816139e1565b82525050565b6000602082019050613a0f60008301846139eb565b92915050565b613a1e81613593565b8114613a2957600080fd5b50565b600081359050613a3b81613a15565b92915050565b60008060408385031215613a5857613a57613504565b5b6000613a6685828601613751565b9250506020613a7785828601613a2c565b9150509250929050565b60008060008060808587031215613a9b57613a9a613504565b5b6000613aa987828801613751565b9450506020613aba87828801613751565b9350506040613acb8782880161369c565b925050606085013567ffffffffffffffff811115613aec57613aeb613509565b5b613af887828801613957565b91505092959194509250565b60008060408385031215613b1b57613b1a613504565b5b6000613b2985828601613751565b9250506020613b3a85828601613751565b9150509250929050565b7f4e487b7100000000000000000000000000000000000000000000000000000000600052602260045260246000fd5b60006002820490506001821680613b8b57607f821691505b602082108103613b9e57613b9d613b44565b5b50919050565b7f4552433732313a20617070726f76616c20746f2063757272656e74206f776e6560008201527f7200000000000000000000000000000000000000000000000000000000000000602082015250565b6000613c006021836135d4565b9150613c0b82613ba4565b604082019050919050565b60006020820190508181036000830152613c2f81613bf3565b9050919050565b7f4552433732313a20617070726f76652063616c6c6572206973206e6f7420746f60008201527f6b656e206f776e6572206f7220617070726f76656420666f7220616c6c000000602082015250565b6000613c92603d836135d4565b9150613c9d82613c36565b604082019050919050565b60006020820190508181036000830152613cc181613c85565b9050919050565b7f4552433732313a2063616c6c6572206973206e6f7420746f6b656e206f776e6560008201527f72206f7220617070726f76656400000000000000000000000000000000000000602082015250565b6000613d24602d836135d4565b9150613d2f82613cc8565b604082019050919050565b60006020820190508181036000830152613d5381613d17565b9050919050565b7f455243373231456e756d657261626c653a206f776e657220696e646578206f7560008201527f74206f6620626f756e6473000000000000000000000000000000000000000000602082015250565b6000613db6602b836135d4565b9150613dc182613d5a565b604082019050919050565b60006020820190508181036000830152613de581613da9565b9050919050565b7f46756e6374696f6e206d7573742062652063616c6c6564207468726f7567682060008201527f64656c656761746563616c6c0000000000000000000000000000000000000000602082015250565b6000613e48602c836135d4565b9150613e5382613dec565b604082019050919050565b60006020820190508181036000830152613e7781613e3b565b9050919050565b7f46756e6374696f6e206d7573742062652063616c6c6564207468726f7567682060008201527f6163746976652070726f78790000000000000000000000000000000000000000602082015250565b6000613eda602c836135d4565b9150613ee582613e7e565b604082019050919050565b60006020820190508181036000830152613f0981613ecd565b9050919050565b7f455243373231456e756d657261626c653a20676c6f62616c20696e646578206f60008201527f7574206f6620626f756e64730000000000000000000000000000000000000000602082015250565b6000613f6c602c836135d4565b9150613f7782613f10565b604082019050919050565b60006020820190508181036000830152613f9b81613f5f565b9050919050565b7f4e487b7100000000000000000000000000000000000000000000000000000000600052603260045260246000fd5b7f555550535570677261646561626c653a206d757374206e6f742062652063616c60008201527f6c6564207468726f7567682064656c656761746563616c6c0000000000000000602082015250565b600061402d6038836135d4565b915061403882613fd1565b604082019050919050565b6000602082019050818103600083015261405c81614020565b9050919050565b7f4552433732313a20696e76616c696420746f6b656e2049440000000000000000600082015250565b60006140996018836135d4565b91506140a482614063565b602082019050919050565b600060208201905081810360008301526140c88161408c565b9050919050565b7f4552433732313a2061646472657373207a65726f206973206e6f74206120766160008201527f6c6964206f776e65720000000000000000000000000000000000000000000000602082015250565b600061412b6029836135d4565b9150614136826140cf565b604082019050919050565b6000602082019050818103600083015261415a8161411e565b9050919050565b7f496e697469616c697a61626c653a20636f6e747261637420697320616c72656160008201527f647920696e697469616c697a6564000000000000000000000000000000000000602082015250565b60006141bd602e836135d4565b91506141c882614161565b604082019050919050565b600060208201905081810360008301526141ec816141b0565b9050919050565b6000819050919050565b600060ff82169050919050565b6000819050919050565b600061422f61422a614225846141f3565b61420a565b6141fd565b9050919050565b61423f81614214565b82525050565b600060208201905061425a6000830184614236565b92915050565b600081905092915050565b6000614276826135c9565b6142808185614260565b93506142908185602086016135e5565b80840191505092915050565b60006142a8828561426b565b91506142b4828461426b565b91508190509392505050565b7f4f776e61626c653a206e6577206f776e657220697320746865207a65726f206160008201527f6464726573730000000000000000000000000000000000000000000000000000602082015250565b600061431c6026836135d4565b9150614327826142c0565b604082019050919050565b6000602082019050818103600083015261434b8161430f565b9050919050565b7f4552433732313a207472616e736665722066726f6d20696e636f72726563742060008201527f6f776e6572000000000000000000000000000000000000000000000000000000602082015250565b60006143ae6025836135d4565b91506143b982614352565b604082019050919050565b600060208201905081810360008301526143dd816143a1565b9050919050565b7f4552433732313a207472616e7366657220746f20746865207a65726f2061646460008201527f7265737300000000000000000000000000000000000000000000000000000000602082015250565b60006144406024836135d4565b915061444b826143e4565b604082019050919050565b6000602082019050818103600083015261446f81614433565b9050919050565b61447f816139e1565b811461448a57600080fd5b50565b60008151905061449c81614476565b92915050565b6000602082840312156144b8576144b7613504565b5b60006144c68482850161448d565b91505092915050565b7f45524331393637557067726164653a206e657720696d706c656d656e7461746960008201527f6f6e206973206e6f742055555053000000000000000000000000000000000000602082015250565b600061452b602e836135d4565b9150614536826144cf565b604082019050919050565b6000602082019050818103600083015261455a8161451e565b9050919050565b7f45524331393637557067726164653a20756e737570706f727465642070726f7860008201527f6961626c65555549440000000000000000000000000000000000000000000000602082015250565b60006145bd6029836135d4565b91506145c882614561565b604082019050919050565b600060208201905081810360008301526145ec816145b0565b9050919050565b7f4f776e61626c653a2063616c6c6572206973206e6f7420746865206f776e6572600082015250565b60006146296020836135d4565b9150614634826145f3565b602082019050919050565b600060208201905081810360008301526146588161461c565b9050919050565b7f496e697469616c697a61626c653a20636f6e7472616374206973206e6f74206960008201527f6e697469616c697a696e67000000000000000000000000000000000000000000602082015250565b60006146bb602b836135d4565b91506146c68261465f565b604082019050919050565b600060208201905081810360008301526146ea816146ae565b9050919050565b7f4552433732313a20617070726f766520746f2063616c6c657200000000000000600082015250565b60006147276019836135d4565b9150614732826146f1565b602082019050919050565b600060208201905081810360008301526147568161471a565b9050919050565b7f4552433732313a207472616e7366657220746f206e6f6e20455243373231526560008201527f63656976657220696d706c656d656e7465720000000000000000000000000000602082015250565b60006147b96032836135d4565b91506147c48261475d565b604082019050919050565b600060208201905081810360008301526147e8816147ac565b9050919050565b7f4e487b7100000000000000000000000000000000000000000000000000000000600052601260045260246000fd5b7f455243313936373a206e657720696d706c656d656e746174696f6e206973206e60008201527f6f74206120636f6e747261637400000000000000000000000000000000000000602082015250565b600061487a602d836135d4565b91506148858261481e565b604082019050919050565b600060208201905081810360008301526148a98161486d565b9050919050565b7f5061757361626c653a206e6f7420706175736564000000000000000000000000600082015250565b60006148e66014836135d4565b91506148f1826148b0565b602082019050919050565b60006020820190508181036000830152614915816148d9565b9050919050565b60008190508160005260206000209050919050565b60006020601f8301049050919050565b600082821b905092915050565b60006008830261497e7fffffffffffffffffffffffffffffffffffffffffffffffffffffffffffffffff82614941565b6149888683614941565b95508019841693508086168417925050509392505050565b60006149bb6149b66149b18461367b565b61420a565b61367b565b9050919050565b6000819050919050565b6149d5836149a0565b6149e96149e1826149c2565b84845461494e565b825550505050565b600090565b6149fe6149f1565b614a098184846149cc565b505050565b5b81811015614a2d57614a226000826149f6565b600181019050614a0f565b5050565b601f821115614a7257614a438161491c565b614a4c84614931565b81016020851015614a5b578190505b614a6f614a6785614931565b830182614a0e565b50505b505050565b600082821c905092915050565b6000614a9560001984600802614a77565b1980831691505092915050565b6000614aae8383614a84565b9150826002028217905092915050565b614ac7826135c9565b67ffffffffffffffff811115614ae057614adf61385a565b5b614aea8254613b73565b614af5828285614a31565b600060209050601f831160018114614b285760008415614b16578287015190505b614b208582614aa2565b865550614b88565b601f198416614b368661491c565b60005b82811015614b5e57848901518255600182019150602085019450602081019050614b39565b86831015614b7b5784890151614b77601f891682614a84565b8355505b6001600288020188555050505b505050505050565b7f5061757361626c653a2070617573656400000000000000000000000000000000600082015250565b6000614bc66010836135d4565b9150614bd182614b90565b602082019050919050565b60006020820190508181036000830152614bf581614bb9565b9050919050565b600081519050919050565b600082825260208201905092915050565b6000614c2382614bfc565b614c2d8185614c07565b9350614c3d8185602086016135e5565b614c468161360f565b840191505092915050565b6000608082019050614c666000830187613710565b614c736020830186613710565b614c8060408301856137a6565b8181036060830152614c928184614c18565b905095945050505050565b600081519050614cac8161353a565b92915050565b600060208284031215614cc857614cc7613504565b5b6000614cd684828501614c9d565b91505092915050565b7f455243373231456e756d657261626c653a20636f6e736563757469766520747260008201527f616e7366657273206e6f7420737570706f727465640000000000000000000000602082015250565b6000614d3b6035836135d4565b9150614d4682614cdf565b604082019050919050565b60006020820190508181036000830152614d6a81614d2e565b9050919050565b7f416464726573733a2064656c65676174652063616c6c20746f206e6f6e2d636f60008201527f6e74726163740000000000000000000000000000000000000000000000000000602082015250565b6000614dcd6026836135d4565b9150614dd882614d71565b604082019050919050565b60006020820190508181036000830152614dfc81614dc0565b9050919050565b600081905092915050565b6000614e1982614bfc565b614e238185614e03565b9350614e338185602086016135e5565b80840191505092915050565b6000614e4b8284614e0e565b915081905092915050565b7f4552433732313a206d696e7420746f20746865207a65726f2061646472657373600082015250565b6000614e8c6020836135d4565b9150614e9782614e56565b602082019050919050565b60006020820190508181036000830152614ebb81614e7f565b9050919050565b7f4552433732313a20746f6b656e20616c7265616479206d696e74656400000000600082015250565b6000614ef8601c836135d4565b9150614f0382614ec2565b602082019050919050565b60006020820190508181036000830152614f2781614eeb565b9050919050565b7f4e487b7100000000000000000000000000000000000000000000000000000000600052601160045260246000fd5b6000614f688261367b565b9150614f738361367b565b9250828203905081811115614f8b57614f8a614f2e565b5b92915050565b6000614f9c8261367b565b9150614fa78361367b565b9250828201905080821115614fbf57614fbe614f2e565b5b92915050565b7f4e487b7100000000000000000000000000000000000000000000000000000000600052603160045260246000fdfe416464726573733a206c6f772d6c6576656c2064656c65676174652063616c6c206661696c6564a2646970667358221220e811fbcd6975c5607fe440c9d2dea7c08e07d7dbdd0982cf5e77e6848fdc6eda64736f6c63430008110033",
  "linkReferences": {},
  "deployedLinkReferences": {}
}